{
	"contracts/8_view.sol": {
		"View": {
			"abi": [
				{
					"inputs": [],
					"name": "Num1",
					"outputs": [
						{
							"internalType": "uint256",
							"name": "",
							"type": "uint256"
						}
					],
					"stateMutability": "view",
					"type": "function"
				},
				{
					"inputs": [],
					"name": "Num2",
					"outputs": [
						{
							"internalType": "uint256",
							"name": "",
							"type": "uint256"
						}
					],
					"stateMutability": "view",
					"type": "function"
				},
				{
					"inputs": [],
					"name": "getResults",
					"outputs": [
						{
							"internalType": "uint256",
							"name": "",
							"type": "uint256"
						},
						{
							"internalType": "uint256",
							"name": "",
							"type": "uint256"
						}
					],
					"stateMutability": "view",
					"type": "function"
				}
			],
			"devdoc": {
				"kind": "dev",
				"methods": {},
				"version": 1
			},
			"evm": {
				"assembly": "    /* \"contracts/8_view.sol\":66:906  contract View {... */\n  mstore(0x40, 0x80)\n    /* \"contracts/8_view.sol\":108:109  2 */\n  0x02\n    /* \"contracts/8_view.sol\":86:109  uint256 public Num1 = 2 */\n  0x00\n  sstore\n    /* \"contracts/8_view.sol\":137:138  7 */\n  0x07\n    /* \"contracts/8_view.sol\":115:138  uint256 public Num2 = 7 */\n  0x01\n  sstore\n    /* \"contracts/8_view.sol\":66:906  contract View {... */\n  callvalue\n  dup1\n  iszero\n  tag_1\n  jumpi\n  revert(0x00, 0x00)\ntag_1:\n  pop\n  dataSize(sub_0)\n  dup1\n  dataOffset(sub_0)\n  0x00\n  codecopy\n  0x00\n  return\nstop\n\nsub_0: assembly {\n        /* \"contracts/8_view.sol\":66:906  contract View {... */\n      mstore(0x40, 0x80)\n      callvalue\n      dup1\n      iszero\n      tag_1\n      jumpi\n      revert(0x00, 0x00)\n    tag_1:\n      pop\n      jumpi(tag_2, lt(calldatasize, 0x04))\n      shr(0xe0, calldataload(0x00))\n      dup1\n      0x254d6005\n      eq\n      tag_3\n      jumpi\n      dup1\n      0x4717f97c\n      eq\n      tag_4\n      jumpi\n      dup1\n      0x7e09697d\n      eq\n      tag_5\n      jumpi\n    tag_2:\n      revert(0x00, 0x00)\n        /* \"contracts/8_view.sol\":115:138  uint256 public Num2 = 7 */\n    tag_3:\n      tag_6\n      tag_7\n      jump\t// in\n    tag_6:\n      mload(0x40)\n      tag_8\n      swap2\n      swap1\n      tag_9\n      jump\t// in\n    tag_8:\n      mload(0x40)\n      dup1\n      swap2\n      sub\n      swap1\n      return\n        /* \"contracts/8_view.sol\":612:904  function getResults() public view returns (uint256, uint256) {... */\n    tag_4:\n      tag_10\n      tag_11\n      jump\t// in\n    tag_10:\n      mload(0x40)\n      tag_12\n      swap3\n      swap2\n      swap1\n      tag_13\n      jump\t// in\n    tag_12:\n      mload(0x40)\n      dup1\n      swap2\n      sub\n      swap1\n      return\n        /* \"contracts/8_view.sol\":86:109  uint256 public Num1 = 2 */\n    tag_5:\n      tag_14\n      tag_15\n      jump\t// in\n    tag_14:\n      mload(0x40)\n      tag_16\n      swap2\n      swap1\n      tag_9\n      jump\t// in\n    tag_16:\n      mload(0x40)\n      dup1\n      swap2\n      sub\n      swap1\n      return\n        /* \"contracts/8_view.sol\":115:138  uint256 public Num2 = 7 */\n    tag_7:\n      sload(0x01)\n      dup2\n      jump\t// out\n        /* \"contracts/8_view.sol\":612:904  function getResults() public view returns (uint256, uint256) {... */\n    tag_11:\n        /* \"contracts/8_view.sol\":655:662  uint256 */\n      0x00\n        /* \"contracts/8_view.sol\":664:671  uint256 */\n      0x00\n        /* \"contracts/8_view.sol\":789:804  uint256 product */\n      0x00\n        /* \"contracts/8_view.sol\":814:818  Num2 */\n      sload(0x01)\n        /* \"contracts/8_view.sol\":807:811  Num1 */\n      sload(0x00)\n        /* \"contracts/8_view.sol\":807:818  Num1 * Num2 */\n      tag_18\n      swap2\n      swap1\n      tag_19\n      jump\t// in\n    tag_18:\n        /* \"contracts/8_view.sol\":789:818  uint256 product = Num1 * Num2 */\n      swap1\n      pop\n        /* \"contracts/8_view.sol\":828:841  uint256 total */\n      0x00\n        /* \"contracts/8_view.sol\":851:855  Num2 */\n      sload(0x01)\n        /* \"contracts/8_view.sol\":844:848  Num1 */\n      sload(0x00)\n        /* \"contracts/8_view.sol\":844:855  Num1 + Num2 */\n      tag_20\n      swap2\n      swap1\n      tag_21\n      jump\t// in\n    tag_20:\n        /* \"contracts/8_view.sol\":828:855  uint256 total = Num1 + Num2 */\n      swap1\n      pop\n        /* \"contracts/8_view.sol\":882:889  product */\n      dup2\n        /* \"contracts/8_view.sol\":891:896  total */\n      dup2\n        /* \"contracts/8_view.sol\":874:897  return (product, total) */\n      swap4\n      pop\n      swap4\n      pop\n      pop\n      pop\n        /* \"contracts/8_view.sol\":612:904  function getResults() public view returns (uint256, uint256) {... */\n      swap1\n      swap2\n      jump\t// out\n        /* \"contracts/8_view.sol\":86:109  uint256 public Num1 = 2 */\n    tag_15:\n      sload(0x00)\n      dup2\n      jump\t// out\n        /* \"#utility.yul\":7:84   */\n    tag_22:\n        /* \"#utility.yul\":44:51   */\n      0x00\n        /* \"#utility.yul\":73:78   */\n      dup2\n        /* \"#utility.yul\":62:78   */\n      swap1\n      pop\n        /* \"#utility.yul\":7:84   */\n      swap2\n      swap1\n      pop\n      jump\t// out\n        /* \"#utility.yul\":90:208   */\n    tag_23:\n        /* \"#utility.yul\":177:201   */\n      tag_28\n        /* \"#utility.yul\":195:200   */\n      dup2\n        /* \"#utility.yul\":177:201   */\n      tag_22\n      jump\t// in\n    tag_28:\n        /* \"#utility.yul\":172:175   */\n      dup3\n        /* \"#utility.yul\":165:202   */\n      mstore\n        /* \"#utility.yul\":90:208   */\n      pop\n      pop\n      jump\t// out\n        /* \"#utility.yul\":214:436   */\n    tag_9:\n        /* \"#utility.yul\":307:311   */\n      0x00\n        /* \"#utility.yul\":345:347   */\n      0x20\n        /* \"#utility.yul\":334:343   */\n      dup3\n        /* \"#utility.yul\":330:348   */\n      add\n        /* \"#utility.yul\":322:348   */\n      swap1\n      pop\n        /* \"#utility.yul\":358:429   */\n      tag_30\n        /* \"#utility.yul\":426:427   */\n      0x00\n        /* \"#utility.yul\":415:424   */\n      dup4\n        /* \"#utility.yul\":411:428   */\n      add\n        /* \"#utility.yul\":402:408   */\n      dup5\n        /* \"#utility.yul\":358:429   */\n      tag_23\n      jump\t// in\n    tag_30:\n        /* \"#utility.yul\":214:436   */\n      swap3\n      swap2\n      pop\n      pop\n      jump\t// out\n        /* \"#utility.yul\":442:774   */\n    tag_13:\n        /* \"#utility.yul\":563:567   */\n      0x00\n        /* \"#utility.yul\":601:603   */\n      0x40\n        /* \"#utility.yul\":590:599   */\n      dup3\n        /* \"#utility.yul\":586:604   */\n      add\n        /* \"#utility.yul\":578:604   */\n      swap1\n      pop\n        /* \"#utility.yul\":614:685   */\n      tag_32\n        /* \"#utility.yul\":682:683   */\n      0x00\n        /* \"#utility.yul\":671:680   */\n      dup4\n        /* \"#utility.yul\":667:684   */\n      add\n        /* \"#utility.yul\":658:664   */\n      dup6\n        /* \"#utility.yul\":614:685   */\n      tag_23\n      jump\t// in\n    tag_32:\n        /* \"#utility.yul\":695:767   */\n      tag_33\n        /* \"#utility.yul\":763:765   */\n      0x20\n        /* \"#utility.yul\":752:761   */\n      dup4\n        /* \"#utility.yul\":748:766   */\n      add\n        /* \"#utility.yul\":739:745   */\n      dup5\n        /* \"#utility.yul\":695:767   */\n      tag_23\n      jump\t// in\n    tag_33:\n        /* \"#utility.yul\":442:774   */\n      swap4\n      swap3\n      pop\n      pop\n      pop\n      jump\t// out\n        /* \"#utility.yul\":780:960   */\n    tag_24:\n        /* \"#utility.yul\":828:905   */\n      0x4e487b7100000000000000000000000000000000000000000000000000000000\n        /* \"#utility.yul\":825:826   */\n      0x00\n        /* \"#utility.yul\":818:906   */\n      mstore\n        /* \"#utility.yul\":925:929   */\n      0x11\n        /* \"#utility.yul\":922:923   */\n      0x04\n        /* \"#utility.yul\":915:930   */\n      mstore\n        /* \"#utility.yul\":949:953   */\n      0x24\n        /* \"#utility.yul\":946:947   */\n      0x00\n        /* \"#utility.yul\":939:954   */\n      revert\n        /* \"#utility.yul\":966:1376   */\n    tag_19:\n        /* \"#utility.yul\":1006:1013   */\n      0x00\n        /* \"#utility.yul\":1029:1049   */\n      tag_36\n        /* \"#utility.yul\":1047:1048   */\n      dup3\n        /* \"#utility.yul\":1029:1049   */\n      tag_22\n      jump\t// in\n    tag_36:\n        /* \"#utility.yul\":1024:1049   */\n      swap2\n      pop\n        /* \"#utility.yul\":1063:1083   */\n      tag_37\n        /* \"#utility.yul\":1081:1082   */\n      dup4\n        /* \"#utility.yul\":1063:1083   */\n      tag_22\n      jump\t// in\n    tag_37:\n        /* \"#utility.yul\":1058:1083   */\n      swap3\n      pop\n        /* \"#utility.yul\":1118:1119   */\n      dup3\n        /* \"#utility.yul\":1115:1116   */\n      dup3\n        /* \"#utility.yul\":1111:1120   */\n      mul\n        /* \"#utility.yul\":1140:1170   */\n      tag_38\n        /* \"#utility.yul\":1158:1169   */\n      dup2\n        /* \"#utility.yul\":1140:1170   */\n      tag_22\n      jump\t// in\n    tag_38:\n        /* \"#utility.yul\":1129:1170   */\n      swap2\n      pop\n        /* \"#utility.yul\":1319:1320   */\n      dup3\n        /* \"#utility.yul\":1310:1317   */\n      dup3\n        /* \"#utility.yul\":1306:1321   */\n      div\n        /* \"#utility.yul\":1303:1304   */\n      dup5\n        /* \"#utility.yul\":1300:1322   */\n      eq\n        /* \"#utility.yul\":1280:1281   */\n      dup4\n        /* \"#utility.yul\":1273:1282   */\n      iszero\n        /* \"#utility.yul\":1253:1336   */\n      or\n        /* \"#utility.yul\":1230:1369   */\n      tag_39\n      jumpi\n        /* \"#utility.yul\":1349:1367   */\n      tag_40\n      tag_24\n      jump\t// in\n    tag_40:\n        /* \"#utility.yul\":1230:1369   */\n    tag_39:\n        /* \"#utility.yul\":1014:1376   */\n      pop\n        /* \"#utility.yul\":966:1376   */\n      swap3\n      swap2\n      pop\n      pop\n      jump\t// out\n        /* \"#utility.yul\":1382:1573   */\n    tag_21:\n        /* \"#utility.yul\":1422:1425   */\n      0x00\n        /* \"#utility.yul\":1441:1461   */\n      tag_42\n        /* \"#utility.yul\":1459:1460   */\n      dup3\n        /* \"#utility.yul\":1441:1461   */\n      tag_22\n      jump\t// in\n    tag_42:\n        /* \"#utility.yul\":1436:1461   */\n      swap2\n      pop\n        /* \"#utility.yul\":1475:1495   */\n      tag_43\n        /* \"#utility.yul\":1493:1494   */\n      dup4\n        /* \"#utility.yul\":1475:1495   */\n      tag_22\n      jump\t// in\n    tag_43:\n        /* \"#utility.yul\":1470:1495   */\n      swap3\n      pop\n        /* \"#utility.yul\":1518:1519   */\n      dup3\n        /* \"#utility.yul\":1515:1516   */\n      dup3\n        /* \"#utility.yul\":1511:1520   */\n      add\n        /* \"#utility.yul\":1504:1520   */\n      swap1\n      pop\n        /* \"#utility.yul\":1539:1542   */\n      dup1\n        /* \"#utility.yul\":1536:1537   */\n      dup3\n        /* \"#utility.yul\":1533:1543   */\n      gt\n        /* \"#utility.yul\":1530:1566   */\n      iszero\n      tag_44\n      jumpi\n        /* \"#utility.yul\":1546:1564   */\n      tag_45\n      tag_24\n      jump\t// in\n    tag_45:\n        /* \"#utility.yul\":1530:1566   */\n    tag_44:\n        /* \"#utility.yul\":1382:1573   */\n      swap3\n      swap2\n      pop\n      pop\n      jump\t// out\n\n    auxdata: 0xa26469706673582212209b0de6e74786bb7b17e56cb3a4729d83417c047225d9169a5f89a26fdc4a66fb64736f6c634300081e0033\n}\n",
				"bytecode": {
					"linkReferences": {},
					"object": "608060405260025f5560076001553480156017575f5ffd5b5061020a806100255f395ff3fe608060405234801561000f575f5ffd5b506004361061003f575f3560e01c8063254d6005146100435780634717f97c146100615780637e09697d14610080575b5f5ffd5b61004b61009e565b60405161005891906100f3565b60405180910390f35b6100696100a4565b60405161007792919061010c565b60405180910390f35b6100886100d6565b60405161009591906100f3565b60405180910390f35b60015481565b5f5f5f6001545f546100b69190610160565b90505f6001545f546100c891906101a1565b905081819350935050509091565b5f5481565b5f819050919050565b6100ed816100db565b82525050565b5f6020820190506101065f8301846100e4565b92915050565b5f60408201905061011f5f8301856100e4565b61012c60208301846100e4565b9392505050565b7f4e487b71000000000000000000000000000000000000000000000000000000005f52601160045260245ffd5b5f61016a826100db565b9150610175836100db565b9250828202610183816100db565b9150828204841483151761019a57610199610133565b5b5092915050565b5f6101ab826100db565b91506101b6836100db565b92508282019050808211156101ce576101cd610133565b5b9291505056fea26469706673582212209b0de6e74786bb7b17e56cb3a4729d83417c047225d9169a5f89a26fdc4a66fb64736f6c634300081e0033",
					"opcodes": "PUSH1 0x80 PUSH1 0x40 MSTORE PUSH1 0x2 PUSH0 SSTORE PUSH1 0x7 PUSH1 0x1 SSTORE CALLVALUE DUP1 ISZERO PUSH1 0x17 JUMPI PUSH0 PUSH0 REVERT JUMPDEST POP PUSH2 0x20A DUP1 PUSH2 0x25 PUSH0 CODECOPY PUSH0 RETURN INVALID PUSH1 0x80 PUSH1 0x40 MSTORE CALLVALUE DUP1 ISZERO PUSH2 0xF JUMPI PUSH0 PUSH0 REVERT JUMPDEST POP PUSH1 0x4 CALLDATASIZE LT PUSH2 0x3F JUMPI PUSH0 CALLDATALOAD PUSH1 0xE0 SHR DUP1 PUSH4 0x254D6005 EQ PUSH2 0x43 JUMPI DUP1 PUSH4 0x4717F97C EQ PUSH2 0x61 JUMPI DUP1 PUSH4 0x7E09697D EQ PUSH2 0x80 JUMPI JUMPDEST PUSH0 PUSH0 REVERT JUMPDEST PUSH2 0x4B PUSH2 0x9E JUMP JUMPDEST PUSH1 0x40 MLOAD PUSH2 0x58 SWAP2 SWAP1 PUSH2 0xF3 JUMP JUMPDEST PUSH1 0x40 MLOAD DUP1 SWAP2 SUB SWAP1 RETURN JUMPDEST PUSH2 0x69 PUSH2 0xA4 JUMP JUMPDEST PUSH1 0x40 MLOAD PUSH2 0x77 SWAP3 SWAP2 SWAP1 PUSH2 0x10C JUMP JUMPDEST PUSH1 0x40 MLOAD DUP1 SWAP2 SUB SWAP1 RETURN JUMPDEST PUSH2 0x88 PUSH2 0xD6 JUMP JUMPDEST PUSH1 0x40 MLOAD PUSH2 0x95 SWAP2 SWAP1 PUSH2 0xF3 JUMP JUMPDEST PUSH1 0x40 MLOAD DUP1 SWAP2 SUB SWAP1 RETURN JUMPDEST PUSH1 0x1 SLOAD DUP2 JUMP JUMPDEST PUSH0 PUSH0 PUSH0 PUSH1 0x1 SLOAD PUSH0 SLOAD PUSH2 0xB6 SWAP2 SWAP1 PUSH2 0x160 JUMP JUMPDEST SWAP1 POP PUSH0 PUSH1 0x1 SLOAD PUSH0 SLOAD PUSH2 0xC8 SWAP2 SWAP1 PUSH2 0x1A1 JUMP JUMPDEST SWAP1 POP DUP2 DUP2 SWAP4 POP SWAP4 POP POP POP SWAP1 SWAP2 JUMP JUMPDEST PUSH0 SLOAD DUP2 JUMP JUMPDEST PUSH0 DUP2 SWAP1 POP SWAP2 SWAP1 POP JUMP JUMPDEST PUSH2 0xED DUP2 PUSH2 0xDB JUMP JUMPDEST DUP3 MSTORE POP POP JUMP JUMPDEST PUSH0 PUSH1 0x20 DUP3 ADD SWAP1 POP PUSH2 0x106 PUSH0 DUP4 ADD DUP5 PUSH2 0xE4 JUMP JUMPDEST SWAP3 SWAP2 POP POP JUMP JUMPDEST PUSH0 PUSH1 0x40 DUP3 ADD SWAP1 POP PUSH2 0x11F PUSH0 DUP4 ADD DUP6 PUSH2 0xE4 JUMP JUMPDEST PUSH2 0x12C PUSH1 0x20 DUP4 ADD DUP5 PUSH2 0xE4 JUMP JUMPDEST SWAP4 SWAP3 POP POP POP JUMP JUMPDEST PUSH32 0x4E487B7100000000000000000000000000000000000000000000000000000000 PUSH0 MSTORE PUSH1 0x11 PUSH1 0x4 MSTORE PUSH1 0x24 PUSH0 REVERT JUMPDEST PUSH0 PUSH2 0x16A DUP3 PUSH2 0xDB JUMP JUMPDEST SWAP2 POP PUSH2 0x175 DUP4 PUSH2 0xDB JUMP JUMPDEST SWAP3 POP DUP3 DUP3 MUL PUSH2 0x183 DUP2 PUSH2 0xDB JUMP JUMPDEST SWAP2 POP DUP3 DUP3 DIV DUP5 EQ DUP4 ISZERO OR PUSH2 0x19A JUMPI PUSH2 0x199 PUSH2 0x133 JUMP JUMPDEST JUMPDEST POP SWAP3 SWAP2 POP POP JUMP JUMPDEST PUSH0 PUSH2 0x1AB DUP3 PUSH2 0xDB JUMP JUMPDEST SWAP2 POP PUSH2 0x1B6 DUP4 PUSH2 0xDB JUMP JUMPDEST SWAP3 POP DUP3 DUP3 ADD SWAP1 POP DUP1 DUP3 GT ISZERO PUSH2 0x1CE JUMPI PUSH2 0x1CD PUSH2 0x133 JUMP JUMPDEST JUMPDEST SWAP3 SWAP2 POP POP JUMP INVALID LOG2 PUSH5 0x6970667358 0x22 SLT KECCAK256 SWAP12 0xD DUPN 0xE7 SELFBALANCE DUP7 0xBB PUSH28 0x17E56CB3A4729D83417C047225D9169A5F89A26FDC4A66FB64736F6C PUSH4 0x4300081E STOP CALLER "
				},
				"gasEstimates": {
					"creation": {
						"codeDepositCost": "104400",
						"executionCost": "44362",
						"totalCost": "148762"
					},
					"external": {
						"Num1()": "2446",
						"Num2()": "2403",
						"getResults()": "infinite"
					}
				},
				"methodIdentifiers": {
					"Num1()": "7e09697d",
					"Num2()": "254d6005",
					"getResults()": "4717f97c"
				}
			},
			"storageLayout": {
				"storage": [
					{
						"astId": 4,
						"contract": "contracts/8_view.sol:View",
						"label": "Num1",
						"offset": 0,
						"slot": "0",
						"type": "t_uint256"
					},
					{
						"astId": 7,
						"contract": "contracts/8_view.sol:View",
						"label": "Num2",
						"offset": 0,
						"slot": "1",
						"type": "t_uint256"
					}
				],
				"types": {
					"t_uint256": {
						"encoding": "inplace",
						"label": "uint256",
						"numberOfBytes": "32"
					}
				}
			},
			"userdoc": {
				"kind": "user",
				"methods": {},
				"version": 1
			}
		}
	}
}