{
	"contracts/stateVariables.sol": {
		"StateVariables": {
			"abi": [
				{
					"inputs": [],
					"name": "myNum",
					"outputs": [
						{
							"internalType": "uint256",
							"name": "",
							"type": "uint256"
						}
					],
					"stateMutability": "view",
					"type": "function"
				},
				{
					"inputs": [],
					"name": "myState",
					"outputs": [
						{
							"internalType": "string",
							"name": "",
							"type": "string"
						}
					],
					"stateMutability": "view",
					"type": "function"
				},
				{
					"inputs": [
						{
							"internalType": "string",
							"name": "_text",
							"type": "string"
						},
						{
							"internalType": "uint256",
							"name": "_no",
							"type": "uint256"
						}
					],
					"name": "update",
					"outputs": [],
					"stateMutability": "nonpayable",
					"type": "function"
				}
			],
			"devdoc": {
				"kind": "dev",
				"methods": {},
				"version": 1
			},
			"evm": {
				"assembly": "    /* \"contracts/stateVariables.sol\":61:764  contract StateVariables{... */\n  mstore(0x40, 0x80)\n  callvalue\n  dup1\n  iszero\n  tag_1\n  jumpi\n  revert(0x00, 0x00)\ntag_1:\n  pop\n  dataSize(sub_0)\n  dup1\n  dataOffset(sub_0)\n  0x00\n  codecopy\n  0x00\n  return\nstop\n\nsub_0: assembly {\n        /* \"contracts/stateVariables.sol\":61:764  contract StateVariables{... */\n      mstore(0x40, 0x80)\n      callvalue\n      dup1\n      iszero\n      tag_1\n      jumpi\n      revert(0x00, 0x00)\n    tag_1:\n      pop\n      jumpi(tag_2, lt(calldatasize, 0x04))\n      shr(0xe0, calldataload(0x00))\n      dup1\n      0x4ee5c2ee\n      eq\n      tag_3\n      jumpi\n      dup1\n      0x8bf1799f\n      eq\n      tag_4\n      jumpi\n      dup1\n      0xd4da005a\n      eq\n      tag_5\n      jumpi\n    tag_2:\n      revert(0x00, 0x00)\n        /* \"contracts/stateVariables.sol\":651:761  function update(string memory _text, uint _no) public {... */\n    tag_3:\n      tag_6\n      0x04\n      dup1\n      calldatasize\n      sub\n      dup2\n      add\n      swap1\n      tag_7\n      swap2\n      swap1\n      tag_8\n      jump\t// in\n    tag_7:\n      tag_9\n      jump\t// in\n    tag_6:\n      stop\n        /* \"contracts/stateVariables.sol\":476:497  string public myState */\n    tag_4:\n      tag_10\n      tag_11\n      jump\t// in\n    tag_10:\n      mload(0x40)\n      tag_12\n      swap2\n      swap1\n      tag_13\n      jump\t// in\n    tag_12:\n      mload(0x40)\n      dup1\n      swap2\n      sub\n      swap1\n      return\n        /* \"contracts/stateVariables.sol\":504:524  uint256 public myNum */\n    tag_5:\n      tag_14\n      tag_15\n      jump\t// in\n    tag_14:\n      mload(0x40)\n      tag_16\n      swap2\n      swap1\n      tag_17\n      jump\t// in\n    tag_16:\n      mload(0x40)\n      dup1\n      swap2\n      sub\n      swap1\n      return\n        /* \"contracts/stateVariables.sol\":651:761  function update(string memory _text, uint _no) public {... */\n    tag_9:\n        /* \"contracts/stateVariables.sol\":726:731  _text */\n      dup2\n        /* \"contracts/stateVariables.sol\":716:723  myState */\n      0x00\n        /* \"contracts/stateVariables.sol\":716:731  myState = _text */\n      swap1\n      dup2\n      tag_19\n      swap2\n      swap1\n      tag_20\n      jump\t// in\n    tag_19:\n      pop\n        /* \"contracts/stateVariables.sol\":750:753  _no */\n      dup1\n        /* \"contracts/stateVariables.sol\":742:747  myNum */\n      0x01\n        /* \"contracts/stateVariables.sol\":742:753  myNum = _no */\n      dup2\n      swap1\n      sstore\n      pop\n        /* \"contracts/stateVariables.sol\":651:761  function update(string memory _text, uint _no) public {... */\n      pop\n      pop\n      jump\t// out\n        /* \"contracts/stateVariables.sol\":476:497  string public myState */\n    tag_11:\n      0x00\n      dup1\n      sload\n      tag_21\n      swap1\n      tag_22\n      jump\t// in\n    tag_21:\n      dup1\n      0x1f\n      add\n      0x20\n      dup1\n      swap2\n      div\n      mul\n      0x20\n      add\n      mload(0x40)\n      swap1\n      dup2\n      add\n      0x40\n      mstore\n      dup1\n      swap3\n      swap2\n      swap1\n      dup2\n      dup2\n      mstore\n      0x20\n      add\n      dup3\n      dup1\n      sload\n      tag_23\n      swap1\n      tag_22\n      jump\t// in\n    tag_23:\n      dup1\n      iszero\n      tag_24\n      jumpi\n      dup1\n      0x1f\n      lt\n      tag_25\n      jumpi\n      0x0100\n      dup1\n      dup4\n      sload\n      div\n      mul\n      dup4\n      mstore\n      swap2\n      0x20\n      add\n      swap2\n      jump(tag_24)\n    tag_25:\n      dup3\n      add\n      swap2\n      swap1\n      0x00\n      mstore\n      keccak256(0x00, 0x20)\n      swap1\n    tag_26:\n      dup2\n      sload\n      dup2\n      mstore\n      swap1\n      0x01\n      add\n      swap1\n      0x20\n      add\n      dup1\n      dup4\n      gt\n      tag_26\n      jumpi\n      dup3\n      swap1\n      sub\n      0x1f\n      and\n      dup3\n      add\n      swap2\n    tag_24:\n      pop\n      pop\n      pop\n      pop\n      pop\n      dup2\n      jump\t// out\n        /* \"contracts/stateVariables.sol\":504:524  uint256 public myNum */\n    tag_15:\n      sload(0x01)\n      dup2\n      jump\t// out\n        /* \"#utility.yul\":7:82   */\n    tag_27:\n        /* \"#utility.yul\":40:46   */\n      0x00\n        /* \"#utility.yul\":73:75   */\n      0x40\n        /* \"#utility.yul\":67:76   */\n      mload\n        /* \"#utility.yul\":57:76   */\n      swap1\n      pop\n        /* \"#utility.yul\":7:82   */\n      swap1\n      jump\t// out\n        /* \"#utility.yul\":88:205   */\n    tag_28:\n        /* \"#utility.yul\":197:198   */\n      0x00\n        /* \"#utility.yul\":194:195   */\n      0x00\n        /* \"#utility.yul\":187:199   */\n      revert\n        /* \"#utility.yul\":211:328   */\n    tag_29:\n        /* \"#utility.yul\":320:321   */\n      0x00\n        /* \"#utility.yul\":317:318   */\n      0x00\n        /* \"#utility.yul\":310:322   */\n      revert\n        /* \"#utility.yul\":334:451   */\n    tag_30:\n        /* \"#utility.yul\":443:444   */\n      0x00\n        /* \"#utility.yul\":440:441   */\n      0x00\n        /* \"#utility.yul\":433:445   */\n      revert\n        /* \"#utility.yul\":457:574   */\n    tag_31:\n        /* \"#utility.yul\":566:567   */\n      0x00\n        /* \"#utility.yul\":563:564   */\n      0x00\n        /* \"#utility.yul\":556:568   */\n      revert\n        /* \"#utility.yul\":580:682   */\n    tag_32:\n        /* \"#utility.yul\":621:627   */\n      0x00\n        /* \"#utility.yul\":672:674   */\n      0x1f\n        /* \"#utility.yul\":668:675   */\n      not\n        /* \"#utility.yul\":663:665   */\n      0x1f\n        /* \"#utility.yul\":656:661   */\n      dup4\n        /* \"#utility.yul\":652:666   */\n      add\n        /* \"#utility.yul\":648:676   */\n      and\n        /* \"#utility.yul\":638:676   */\n      swap1\n      pop\n        /* \"#utility.yul\":580:682   */\n      swap2\n      swap1\n      pop\n      jump\t// out\n        /* \"#utility.yul\":688:868   */\n    tag_33:\n        /* \"#utility.yul\":736:813   */\n      0x4e487b7100000000000000000000000000000000000000000000000000000000\n        /* \"#utility.yul\":733:734   */\n      0x00\n        /* \"#utility.yul\":726:814   */\n      mstore\n        /* \"#utility.yul\":833:837   */\n      0x41\n        /* \"#utility.yul\":830:831   */\n      0x04\n        /* \"#utility.yul\":823:838   */\n      mstore\n        /* \"#utility.yul\":857:861   */\n      0x24\n        /* \"#utility.yul\":854:855   */\n      0x00\n        /* \"#utility.yul\":847:862   */\n      revert\n        /* \"#utility.yul\":874:1155   */\n    tag_34:\n        /* \"#utility.yul\":957:984   */\n      tag_73\n        /* \"#utility.yul\":979:983   */\n      dup3\n        /* \"#utility.yul\":957:984   */\n      tag_32\n      jump\t// in\n    tag_73:\n        /* \"#utility.yul\":949:955   */\n      dup2\n        /* \"#utility.yul\":945:985   */\n      add\n        /* \"#utility.yul\":1087:1093   */\n      dup2\n        /* \"#utility.yul\":1075:1085   */\n      dup2\n        /* \"#utility.yul\":1072:1094   */\n      lt\n        /* \"#utility.yul\":1051:1069   */\n      0xffffffffffffffff\n        /* \"#utility.yul\":1039:1049   */\n      dup3\n        /* \"#utility.yul\":1036:1070   */\n      gt\n        /* \"#utility.yul\":1033:1095   */\n      or\n        /* \"#utility.yul\":1030:1118   */\n      iszero\n      tag_74\n      jumpi\n        /* \"#utility.yul\":1098:1116   */\n      tag_75\n      tag_33\n      jump\t// in\n    tag_75:\n        /* \"#utility.yul\":1030:1118   */\n    tag_74:\n        /* \"#utility.yul\":1138:1148   */\n      dup1\n        /* \"#utility.yul\":1134:1136   */\n      0x40\n        /* \"#utility.yul\":1127:1149   */\n      mstore\n        /* \"#utility.yul\":917:1155   */\n      pop\n        /* \"#utility.yul\":874:1155   */\n      pop\n      pop\n      jump\t// out\n        /* \"#utility.yul\":1161:1290   */\n    tag_35:\n        /* \"#utility.yul\":1195:1201   */\n      0x00\n        /* \"#utility.yul\":1222:1242   */\n      tag_77\n      tag_27\n      jump\t// in\n    tag_77:\n        /* \"#utility.yul\":1212:1242   */\n      swap1\n      pop\n        /* \"#utility.yul\":1251:1284   */\n      tag_78\n        /* \"#utility.yul\":1279:1283   */\n      dup3\n        /* \"#utility.yul\":1271:1277   */\n      dup3\n        /* \"#utility.yul\":1251:1284   */\n      tag_34\n      jump\t// in\n    tag_78:\n        /* \"#utility.yul\":1161:1290   */\n      swap2\n      swap1\n      pop\n      jump\t// out\n        /* \"#utility.yul\":1296:1604   */\n    tag_36:\n        /* \"#utility.yul\":1358:1362   */\n      0x00\n        /* \"#utility.yul\":1448:1466   */\n      0xffffffffffffffff\n        /* \"#utility.yul\":1440:1446   */\n      dup3\n        /* \"#utility.yul\":1437:1467   */\n      gt\n        /* \"#utility.yul\":1434:1490   */\n      iszero\n      tag_80\n      jumpi\n        /* \"#utility.yul\":1470:1488   */\n      tag_81\n      tag_33\n      jump\t// in\n    tag_81:\n        /* \"#utility.yul\":1434:1490   */\n    tag_80:\n        /* \"#utility.yul\":1508:1537   */\n      tag_82\n        /* \"#utility.yul\":1530:1536   */\n      dup3\n        /* \"#utility.yul\":1508:1537   */\n      tag_32\n      jump\t// in\n    tag_82:\n        /* \"#utility.yul\":1500:1537   */\n      swap1\n      pop\n        /* \"#utility.yul\":1592:1596   */\n      0x20\n        /* \"#utility.yul\":1586:1590   */\n      dup2\n        /* \"#utility.yul\":1582:1597   */\n      add\n        /* \"#utility.yul\":1574:1597   */\n      swap1\n      pop\n        /* \"#utility.yul\":1296:1604   */\n      swap2\n      swap1\n      pop\n      jump\t// out\n        /* \"#utility.yul\":1610:1758   */\n    tag_37:\n        /* \"#utility.yul\":1708:1714   */\n      dup3\n        /* \"#utility.yul\":1703:1706   */\n      dup2\n        /* \"#utility.yul\":1698:1701   */\n      dup4\n        /* \"#utility.yul\":1685:1715   */\n      calldatacopy\n        /* \"#utility.yul\":1749:1750   */\n      0x00\n        /* \"#utility.yul\":1740:1746   */\n      dup4\n        /* \"#utility.yul\":1735:1738   */\n      dup4\n        /* \"#utility.yul\":1731:1747   */\n      add\n        /* \"#utility.yul\":1724:1751   */\n      mstore\n        /* \"#utility.yul\":1610:1758   */\n      pop\n      pop\n      pop\n      jump\t// out\n        /* \"#utility.yul\":1764:2189   */\n    tag_38:\n        /* \"#utility.yul\":1842:1847   */\n      0x00\n        /* \"#utility.yul\":1867:1933   */\n      tag_85\n        /* \"#utility.yul\":1883:1932   */\n      tag_86\n        /* \"#utility.yul\":1925:1931   */\n      dup5\n        /* \"#utility.yul\":1883:1932   */\n      tag_36\n      jump\t// in\n    tag_86:\n        /* \"#utility.yul\":1867:1933   */\n      tag_35\n      jump\t// in\n    tag_85:\n        /* \"#utility.yul\":1858:1933   */\n      swap1\n      pop\n        /* \"#utility.yul\":1956:1962   */\n      dup3\n        /* \"#utility.yul\":1949:1954   */\n      dup2\n        /* \"#utility.yul\":1942:1963   */\n      mstore\n        /* \"#utility.yul\":1994:1998   */\n      0x20\n        /* \"#utility.yul\":1987:1992   */\n      dup2\n        /* \"#utility.yul\":1983:1999   */\n      add\n        /* \"#utility.yul\":2032:2035   */\n      dup5\n        /* \"#utility.yul\":2023:2029   */\n      dup5\n        /* \"#utility.yul\":2018:2021   */\n      dup5\n        /* \"#utility.yul\":2014:2030   */\n      add\n        /* \"#utility.yul\":2011:2036   */\n      gt\n        /* \"#utility.yul\":2008:2120   */\n      iszero\n      tag_87\n      jumpi\n        /* \"#utility.yul\":2039:2118   */\n      tag_88\n      tag_31\n      jump\t// in\n    tag_88:\n        /* \"#utility.yul\":2008:2120   */\n    tag_87:\n        /* \"#utility.yul\":2129:2183   */\n      tag_89\n        /* \"#utility.yul\":2176:2182   */\n      dup5\n        /* \"#utility.yul\":2171:2174   */\n      dup3\n        /* \"#utility.yul\":2166:2169   */\n      dup6\n        /* \"#utility.yul\":2129:2183   */\n      tag_37\n      jump\t// in\n    tag_89:\n        /* \"#utility.yul\":1848:2189   */\n      pop\n        /* \"#utility.yul\":1764:2189   */\n      swap4\n      swap3\n      pop\n      pop\n      pop\n      jump\t// out\n        /* \"#utility.yul\":2209:2549   */\n    tag_39:\n        /* \"#utility.yul\":2265:2270   */\n      0x00\n        /* \"#utility.yul\":2314:2317   */\n      dup3\n        /* \"#utility.yul\":2307:2311   */\n      0x1f\n        /* \"#utility.yul\":2299:2305   */\n      dup4\n        /* \"#utility.yul\":2295:2312   */\n      add\n        /* \"#utility.yul\":2291:2318   */\n      slt\n        /* \"#utility.yul\":2281:2403   */\n      tag_91\n      jumpi\n        /* \"#utility.yul\":2322:2401   */\n      tag_92\n      tag_30\n      jump\t// in\n    tag_92:\n        /* \"#utility.yul\":2281:2403   */\n    tag_91:\n        /* \"#utility.yul\":2439:2445   */\n      dup2\n        /* \"#utility.yul\":2426:2446   */\n      calldataload\n        /* \"#utility.yul\":2464:2543   */\n      tag_93\n        /* \"#utility.yul\":2539:2542   */\n      dup5\n        /* \"#utility.yul\":2531:2537   */\n      dup3\n        /* \"#utility.yul\":2524:2528   */\n      0x20\n        /* \"#utility.yul\":2516:2522   */\n      dup7\n        /* \"#utility.yul\":2512:2529   */\n      add\n        /* \"#utility.yul\":2464:2543   */\n      tag_38\n      jump\t// in\n    tag_93:\n        /* \"#utility.yul\":2455:2543   */\n      swap2\n      pop\n        /* \"#utility.yul\":2271:2549   */\n      pop\n        /* \"#utility.yul\":2209:2549   */\n      swap3\n      swap2\n      pop\n      pop\n      jump\t// out\n        /* \"#utility.yul\":2555:2632   */\n    tag_40:\n        /* \"#utility.yul\":2592:2599   */\n      0x00\n        /* \"#utility.yul\":2621:2626   */\n      dup2\n        /* \"#utility.yul\":2610:2626   */\n      swap1\n      pop\n        /* \"#utility.yul\":2555:2632   */\n      swap2\n      swap1\n      pop\n      jump\t// out\n        /* \"#utility.yul\":2638:2760   */\n    tag_41:\n        /* \"#utility.yul\":2711:2735   */\n      tag_96\n        /* \"#utility.yul\":2729:2734   */\n      dup2\n        /* \"#utility.yul\":2711:2735   */\n      tag_40\n      jump\t// in\n    tag_96:\n        /* \"#utility.yul\":2704:2709   */\n      dup2\n        /* \"#utility.yul\":2701:2736   */\n      eq\n        /* \"#utility.yul\":2691:2754   */\n      tag_97\n      jumpi\n        /* \"#utility.yul\":2750:2751   */\n      0x00\n        /* \"#utility.yul\":2747:2748   */\n      0x00\n        /* \"#utility.yul\":2740:2752   */\n      revert\n        /* \"#utility.yul\":2691:2754   */\n    tag_97:\n        /* \"#utility.yul\":2638:2760   */\n      pop\n      jump\t// out\n        /* \"#utility.yul\":2766:2905   */\n    tag_42:\n        /* \"#utility.yul\":2812:2817   */\n      0x00\n        /* \"#utility.yul\":2850:2856   */\n      dup2\n        /* \"#utility.yul\":2837:2857   */\n      calldataload\n        /* \"#utility.yul\":2828:2857   */\n      swap1\n      pop\n        /* \"#utility.yul\":2866:2899   */\n      tag_99\n        /* \"#utility.yul\":2893:2898   */\n      dup2\n        /* \"#utility.yul\":2866:2899   */\n      tag_41\n      jump\t// in\n    tag_99:\n        /* \"#utility.yul\":2766:2905   */\n      swap3\n      swap2\n      pop\n      pop\n      jump\t// out\n        /* \"#utility.yul\":2911:3565   */\n    tag_8:\n        /* \"#utility.yul\":2989:2995   */\n      0x00\n        /* \"#utility.yul\":2997:3003   */\n      0x00\n        /* \"#utility.yul\":3046:3048   */\n      0x40\n        /* \"#utility.yul\":3034:3043   */\n      dup4\n        /* \"#utility.yul\":3025:3032   */\n      dup6\n        /* \"#utility.yul\":3021:3044   */\n      sub\n        /* \"#utility.yul\":3017:3049   */\n      slt\n        /* \"#utility.yul\":3014:3133   */\n      iszero\n      tag_101\n      jumpi\n        /* \"#utility.yul\":3052:3131   */\n      tag_102\n      tag_28\n      jump\t// in\n    tag_102:\n        /* \"#utility.yul\":3014:3133   */\n    tag_101:\n        /* \"#utility.yul\":3200:3201   */\n      0x00\n        /* \"#utility.yul\":3189:3198   */\n      dup4\n        /* \"#utility.yul\":3185:3202   */\n      add\n        /* \"#utility.yul\":3172:3203   */\n      calldataload\n        /* \"#utility.yul\":3230:3248   */\n      0xffffffffffffffff\n        /* \"#utility.yul\":3222:3228   */\n      dup2\n        /* \"#utility.yul\":3219:3249   */\n      gt\n        /* \"#utility.yul\":3216:3333   */\n      iszero\n      tag_103\n      jumpi\n        /* \"#utility.yul\":3252:3331   */\n      tag_104\n      tag_29\n      jump\t// in\n    tag_104:\n        /* \"#utility.yul\":3216:3333   */\n    tag_103:\n        /* \"#utility.yul\":3357:3420   */\n      tag_105\n        /* \"#utility.yul\":3412:3419   */\n      dup6\n        /* \"#utility.yul\":3403:3409   */\n      dup3\n        /* \"#utility.yul\":3392:3401   */\n      dup7\n        /* \"#utility.yul\":3388:3410   */\n      add\n        /* \"#utility.yul\":3357:3420   */\n      tag_39\n      jump\t// in\n    tag_105:\n        /* \"#utility.yul\":3347:3420   */\n      swap3\n      pop\n        /* \"#utility.yul\":3143:3430   */\n      pop\n        /* \"#utility.yul\":3469:3471   */\n      0x20\n        /* \"#utility.yul\":3495:3548   */\n      tag_106\n        /* \"#utility.yul\":3540:3547   */\n      dup6\n        /* \"#utility.yul\":3531:3537   */\n      dup3\n        /* \"#utility.yul\":3520:3529   */\n      dup7\n        /* \"#utility.yul\":3516:3538   */\n      add\n        /* \"#utility.yul\":3495:3548   */\n      tag_42\n      jump\t// in\n    tag_106:\n        /* \"#utility.yul\":3485:3548   */\n      swap2\n      pop\n        /* \"#utility.yul\":3440:3558   */\n      pop\n        /* \"#utility.yul\":2911:3565   */\n      swap3\n      pop\n      swap3\n      swap1\n      pop\n      jump\t// out\n        /* \"#utility.yul\":3571:3670   */\n    tag_43:\n        /* \"#utility.yul\":3623:3629   */\n      0x00\n        /* \"#utility.yul\":3657:3662   */\n      dup2\n        /* \"#utility.yul\":3651:3663   */\n      mload\n        /* \"#utility.yul\":3641:3663   */\n      swap1\n      pop\n        /* \"#utility.yul\":3571:3670   */\n      swap2\n      swap1\n      pop\n      jump\t// out\n        /* \"#utility.yul\":3676:3845   */\n    tag_44:\n        /* \"#utility.yul\":3760:3771   */\n      0x00\n        /* \"#utility.yul\":3794:3800   */\n      dup3\n        /* \"#utility.yul\":3789:3792   */\n      dup3\n        /* \"#utility.yul\":3782:3801   */\n      mstore\n        /* \"#utility.yul\":3834:3838   */\n      0x20\n        /* \"#utility.yul\":3829:3832   */\n      dup3\n        /* \"#utility.yul\":3825:3839   */\n      add\n        /* \"#utility.yul\":3810:3839   */\n      swap1\n      pop\n        /* \"#utility.yul\":3676:3845   */\n      swap3\n      swap2\n      pop\n      pop\n      jump\t// out\n        /* \"#utility.yul\":3851:3990   */\n    tag_45:\n        /* \"#utility.yul\":3940:3946   */\n      dup3\n        /* \"#utility.yul\":3935:3938   */\n      dup2\n        /* \"#utility.yul\":3930:3933   */\n      dup4\n        /* \"#utility.yul\":3924:3947   */\n      mcopy\n        /* \"#utility.yul\":3981:3982   */\n      0x00\n        /* \"#utility.yul\":3972:3978   */\n      dup4\n        /* \"#utility.yul\":3967:3970   */\n      dup4\n        /* \"#utility.yul\":3963:3979   */\n      add\n        /* \"#utility.yul\":3956:3983   */\n      mstore\n        /* \"#utility.yul\":3851:3990   */\n      pop\n      pop\n      pop\n      jump\t// out\n        /* \"#utility.yul\":3996:4373   */\n    tag_46:\n        /* \"#utility.yul\":4084:4087   */\n      0x00\n        /* \"#utility.yul\":4112:4151   */\n      tag_111\n        /* \"#utility.yul\":4145:4150   */\n      dup3\n        /* \"#utility.yul\":4112:4151   */\n      tag_43\n      jump\t// in\n    tag_111:\n        /* \"#utility.yul\":4167:4238   */\n      tag_112\n        /* \"#utility.yul\":4231:4237   */\n      dup2\n        /* \"#utility.yul\":4226:4229   */\n      dup6\n        /* \"#utility.yul\":4167:4238   */\n      tag_44\n      jump\t// in\n    tag_112:\n        /* \"#utility.yul\":4160:4238   */\n      swap4\n      pop\n        /* \"#utility.yul\":4247:4312   */\n      tag_113\n        /* \"#utility.yul\":4305:4311   */\n      dup2\n        /* \"#utility.yul\":4300:4303   */\n      dup6\n        /* \"#utility.yul\":4293:4297   */\n      0x20\n        /* \"#utility.yul\":4286:4291   */\n      dup7\n        /* \"#utility.yul\":4282:4298   */\n      add\n        /* \"#utility.yul\":4247:4312   */\n      tag_45\n      jump\t// in\n    tag_113:\n        /* \"#utility.yul\":4337:4366   */\n      tag_114\n        /* \"#utility.yul\":4359:4365   */\n      dup2\n        /* \"#utility.yul\":4337:4366   */\n      tag_32\n      jump\t// in\n    tag_114:\n        /* \"#utility.yul\":4332:4335   */\n      dup5\n        /* \"#utility.yul\":4328:4367   */\n      add\n        /* \"#utility.yul\":4321:4367   */\n      swap2\n      pop\n        /* \"#utility.yul\":4088:4373   */\n      pop\n        /* \"#utility.yul\":3996:4373   */\n      swap3\n      swap2\n      pop\n      pop\n      jump\t// out\n        /* \"#utility.yul\":4379:4692   */\n    tag_13:\n        /* \"#utility.yul\":4492:4496   */\n      0x00\n        /* \"#utility.yul\":4530:4532   */\n      0x20\n        /* \"#utility.yul\":4519:4528   */\n      dup3\n        /* \"#utility.yul\":4515:4533   */\n      add\n        /* \"#utility.yul\":4507:4533   */\n      swap1\n      pop\n        /* \"#utility.yul\":4579:4588   */\n      dup2\n        /* \"#utility.yul\":4573:4577   */\n      dup2\n        /* \"#utility.yul\":4569:4589   */\n      sub\n        /* \"#utility.yul\":4565:4566   */\n      0x00\n        /* \"#utility.yul\":4554:4563   */\n      dup4\n        /* \"#utility.yul\":4550:4567   */\n      add\n        /* \"#utility.yul\":4543:4590   */\n      mstore\n        /* \"#utility.yul\":4607:4685   */\n      tag_116\n        /* \"#utility.yul\":4680:4684   */\n      dup2\n        /* \"#utility.yul\":4671:4677   */\n      dup5\n        /* \"#utility.yul\":4607:4685   */\n      tag_46\n      jump\t// in\n    tag_116:\n        /* \"#utility.yul\":4599:4685   */\n      swap1\n      pop\n        /* \"#utility.yul\":4379:4692   */\n      swap3\n      swap2\n      pop\n      pop\n      jump\t// out\n        /* \"#utility.yul\":4698:4816   */\n    tag_47:\n        /* \"#utility.yul\":4785:4809   */\n      tag_118\n        /* \"#utility.yul\":4803:4808   */\n      dup2\n        /* \"#utility.yul\":4785:4809   */\n      tag_40\n      jump\t// in\n    tag_118:\n        /* \"#utility.yul\":4780:4783   */\n      dup3\n        /* \"#utility.yul\":4773:4810   */\n      mstore\n        /* \"#utility.yul\":4698:4816   */\n      pop\n      pop\n      jump\t// out\n        /* \"#utility.yul\":4822:5044   */\n    tag_17:\n        /* \"#utility.yul\":4915:4919   */\n      0x00\n        /* \"#utility.yul\":4953:4955   */\n      0x20\n        /* \"#utility.yul\":4942:4951   */\n      dup3\n        /* \"#utility.yul\":4938:4956   */\n      add\n        /* \"#utility.yul\":4930:4956   */\n      swap1\n      pop\n        /* \"#utility.yul\":4966:5037   */\n      tag_120\n        /* \"#utility.yul\":5034:5035   */\n      0x00\n        /* \"#utility.yul\":5023:5032   */\n      dup4\n        /* \"#utility.yul\":5019:5036   */\n      add\n        /* \"#utility.yul\":5010:5016   */\n      dup5\n        /* \"#utility.yul\":4966:5037   */\n      tag_47\n      jump\t// in\n    tag_120:\n        /* \"#utility.yul\":4822:5044   */\n      swap3\n      swap2\n      pop\n      pop\n      jump\t// out\n        /* \"#utility.yul\":5050:5230   */\n    tag_48:\n        /* \"#utility.yul\":5098:5175   */\n      0x4e487b7100000000000000000000000000000000000000000000000000000000\n        /* \"#utility.yul\":5095:5096   */\n      0x00\n        /* \"#utility.yul\":5088:5176   */\n      mstore\n        /* \"#utility.yul\":5195:5199   */\n      0x22\n        /* \"#utility.yul\":5192:5193   */\n      0x04\n        /* \"#utility.yul\":5185:5200   */\n      mstore\n        /* \"#utility.yul\":5219:5223   */\n      0x24\n        /* \"#utility.yul\":5216:5217   */\n      0x00\n        /* \"#utility.yul\":5209:5224   */\n      revert\n        /* \"#utility.yul\":5236:5556   */\n    tag_22:\n        /* \"#utility.yul\":5280:5286   */\n      0x00\n        /* \"#utility.yul\":5317:5318   */\n      0x02\n        /* \"#utility.yul\":5311:5315   */\n      dup3\n        /* \"#utility.yul\":5307:5319   */\n      div\n        /* \"#utility.yul\":5297:5319   */\n      swap1\n      pop\n        /* \"#utility.yul\":5364:5365   */\n      0x01\n        /* \"#utility.yul\":5358:5362   */\n      dup3\n        /* \"#utility.yul\":5354:5366   */\n      and\n        /* \"#utility.yul\":5385:5403   */\n      dup1\n        /* \"#utility.yul\":5375:5456   */\n      tag_123\n      jumpi\n        /* \"#utility.yul\":5441:5445   */\n      0x7f\n        /* \"#utility.yul\":5433:5439   */\n      dup3\n        /* \"#utility.yul\":5429:5446   */\n      and\n        /* \"#utility.yul\":5419:5446   */\n      swap2\n      pop\n        /* \"#utility.yul\":5375:5456   */\n    tag_123:\n        /* \"#utility.yul\":5503:5505   */\n      0x20\n        /* \"#utility.yul\":5495:5501   */\n      dup3\n        /* \"#utility.yul\":5492:5506   */\n      lt\n        /* \"#utility.yul\":5472:5490   */\n      dup2\n        /* \"#utility.yul\":5469:5507   */\n      sub\n        /* \"#utility.yul\":5466:5550   */\n      tag_124\n      jumpi\n        /* \"#utility.yul\":5522:5540   */\n      tag_125\n      tag_48\n      jump\t// in\n    tag_125:\n        /* \"#utility.yul\":5466:5550   */\n    tag_124:\n        /* \"#utility.yul\":5287:5556   */\n      pop\n        /* \"#utility.yul\":5236:5556   */\n      swap2\n      swap1\n      pop\n      jump\t// out\n        /* \"#utility.yul\":5562:5703   */\n    tag_49:\n        /* \"#utility.yul\":5611:5615   */\n      0x00\n        /* \"#utility.yul\":5634:5637   */\n      dup2\n        /* \"#utility.yul\":5626:5637   */\n      swap1\n      pop\n        /* \"#utility.yul\":5657:5660   */\n      dup2\n        /* \"#utility.yul\":5654:5655   */\n      0x00\n        /* \"#utility.yul\":5647:5661   */\n      mstore\n        /* \"#utility.yul\":5691:5695   */\n      0x20\n        /* \"#utility.yul\":5688:5689   */\n      0x00\n        /* \"#utility.yul\":5678:5696   */\n      keccak256\n        /* \"#utility.yul\":5670:5696   */\n      swap1\n      pop\n        /* \"#utility.yul\":5562:5703   */\n      swap2\n      swap1\n      pop\n      jump\t// out\n        /* \"#utility.yul\":5709:5802   */\n    tag_50:\n        /* \"#utility.yul\":5746:5752   */\n      0x00\n        /* \"#utility.yul\":5793:5795   */\n      0x20\n        /* \"#utility.yul\":5788:5790   */\n      0x1f\n        /* \"#utility.yul\":5781:5786   */\n      dup4\n        /* \"#utility.yul\":5777:5791   */\n      add\n        /* \"#utility.yul\":5773:5796   */\n      div\n        /* \"#utility.yul\":5763:5796   */\n      swap1\n      pop\n        /* \"#utility.yul\":5709:5802   */\n      swap2\n      swap1\n      pop\n      jump\t// out\n        /* \"#utility.yul\":5808:5915   */\n    tag_51:\n        /* \"#utility.yul\":5852:5860   */\n      0x00\n        /* \"#utility.yul\":5902:5907   */\n      dup3\n        /* \"#utility.yul\":5896:5900   */\n      dup3\n        /* \"#utility.yul\":5892:5908   */\n      shl\n        /* \"#utility.yul\":5871:5908   */\n      swap1\n      pop\n        /* \"#utility.yul\":5808:5915   */\n      swap3\n      swap2\n      pop\n      pop\n      jump\t// out\n        /* \"#utility.yul\":5921:6314   */\n    tag_52:\n        /* \"#utility.yul\":5990:5996   */\n      0x00\n        /* \"#utility.yul\":6040:6041   */\n      0x08\n        /* \"#utility.yul\":6028:6038   */\n      dup4\n        /* \"#utility.yul\":6024:6042   */\n      mul\n        /* \"#utility.yul\":6063:6160   */\n      tag_130\n        /* \"#utility.yul\":6093:6159   */\n      0xffffffffffffffffffffffffffffffffffffffffffffffffffffffffffffffff\n        /* \"#utility.yul\":6082:6091   */\n      dup3\n        /* \"#utility.yul\":6063:6160   */\n      tag_51\n      jump\t// in\n    tag_130:\n        /* \"#utility.yul\":6181:6220   */\n      tag_131\n        /* \"#utility.yul\":6211:6219   */\n      dup7\n        /* \"#utility.yul\":6200:6209   */\n      dup4\n        /* \"#utility.yul\":6181:6220   */\n      tag_51\n      jump\t// in\n    tag_131:\n        /* \"#utility.yul\":6169:6220   */\n      swap6\n      pop\n        /* \"#utility.yul\":6253:6257   */\n      dup1\n        /* \"#utility.yul\":6249:6258   */\n      not\n        /* \"#utility.yul\":6242:6247   */\n      dup5\n        /* \"#utility.yul\":6238:6259   */\n      and\n        /* \"#utility.yul\":6229:6259   */\n      swap4\n      pop\n        /* \"#utility.yul\":6302:6306   */\n      dup1\n        /* \"#utility.yul\":6292:6300   */\n      dup7\n        /* \"#utility.yul\":6288:6307   */\n      and\n        /* \"#utility.yul\":6281:6286   */\n      dup5\n        /* \"#utility.yul\":6278:6308   */\n      or\n        /* \"#utility.yul\":6268:6308   */\n      swap3\n      pop\n        /* \"#utility.yul\":5997:6314   */\n      pop\n      pop\n        /* \"#utility.yul\":5921:6314   */\n      swap4\n      swap3\n      pop\n      pop\n      pop\n      jump\t// out\n        /* \"#utility.yul\":6320:6380   */\n    tag_53:\n        /* \"#utility.yul\":6348:6351   */\n      0x00\n        /* \"#utility.yul\":6369:6374   */\n      dup2\n        /* \"#utility.yul\":6362:6374   */\n      swap1\n      pop\n        /* \"#utility.yul\":6320:6380   */\n      swap2\n      swap1\n      pop\n      jump\t// out\n        /* \"#utility.yul\":6386:6528   */\n    tag_54:\n        /* \"#utility.yul\":6436:6445   */\n      0x00\n        /* \"#utility.yul\":6469:6522   */\n      tag_134\n        /* \"#utility.yul\":6487:6521   */\n      tag_135\n        /* \"#utility.yul\":6496:6520   */\n      tag_136\n        /* \"#utility.yul\":6514:6519   */\n      dup5\n        /* \"#utility.yul\":6496:6520   */\n      tag_40\n      jump\t// in\n    tag_136:\n        /* \"#utility.yul\":6487:6521   */\n      tag_53\n      jump\t// in\n    tag_135:\n        /* \"#utility.yul\":6469:6522   */\n      tag_40\n      jump\t// in\n    tag_134:\n        /* \"#utility.yul\":6456:6522   */\n      swap1\n      pop\n        /* \"#utility.yul\":6386:6528   */\n      swap2\n      swap1\n      pop\n      jump\t// out\n        /* \"#utility.yul\":6534:6609   */\n    tag_55:\n        /* \"#utility.yul\":6577:6580   */\n      0x00\n        /* \"#utility.yul\":6598:6603   */\n      dup2\n        /* \"#utility.yul\":6591:6603   */\n      swap1\n      pop\n        /* \"#utility.yul\":6534:6609   */\n      swap2\n      swap1\n      pop\n      jump\t// out\n        /* \"#utility.yul\":6615:6884   */\n    tag_56:\n        /* \"#utility.yul\":6725:6764   */\n      tag_139\n        /* \"#utility.yul\":6756:6763   */\n      dup4\n        /* \"#utility.yul\":6725:6764   */\n      tag_54\n      jump\t// in\n    tag_139:\n        /* \"#utility.yul\":6786:6877   */\n      tag_140\n        /* \"#utility.yul\":6835:6876   */\n      tag_141\n        /* \"#utility.yul\":6859:6875   */\n      dup3\n        /* \"#utility.yul\":6835:6876   */\n      tag_55\n      jump\t// in\n    tag_141:\n        /* \"#utility.yul\":6827:6833   */\n      dup5\n        /* \"#utility.yul\":6820:6824   */\n      dup5\n        /* \"#utility.yul\":6814:6825   */\n      sload\n        /* \"#utility.yul\":6786:6877   */\n      tag_52\n      jump\t// in\n    tag_140:\n        /* \"#utility.yul\":6780:6784   */\n      dup3\n        /* \"#utility.yul\":6773:6878   */\n      sstore\n        /* \"#utility.yul\":6691:6884   */\n      pop\n        /* \"#utility.yul\":6615:6884   */\n      pop\n      pop\n      pop\n      jump\t// out\n        /* \"#utility.yul\":6890:6963   */\n    tag_57:\n        /* \"#utility.yul\":6935:6938   */\n      0x00\n        /* \"#utility.yul\":6956:6957   */\n      0x00\n        /* \"#utility.yul\":6949:6957   */\n      swap1\n      pop\n        /* \"#utility.yul\":6890:6963   */\n      swap1\n      jump\t// out\n        /* \"#utility.yul\":6969:7158   */\n    tag_58:\n        /* \"#utility.yul\":7046:7078   */\n      tag_144\n      tag_57\n      jump\t// in\n    tag_144:\n        /* \"#utility.yul\":7087:7152   */\n      tag_145\n        /* \"#utility.yul\":7145:7151   */\n      dup2\n        /* \"#utility.yul\":7137:7143   */\n      dup5\n        /* \"#utility.yul\":7131:7135   */\n      dup5\n        /* \"#utility.yul\":7087:7152   */\n      tag_56\n      jump\t// in\n    tag_145:\n        /* \"#utility.yul\":7022:7158   */\n      pop\n        /* \"#utility.yul\":6969:7158   */\n      pop\n      pop\n      jump\t// out\n        /* \"#utility.yul\":7164:7350   */\n    tag_59:\n        /* \"#utility.yul\":7224:7344   */\n    tag_147:\n        /* \"#utility.yul\":7241:7244   */\n      dup2\n        /* \"#utility.yul\":7234:7239   */\n      dup2\n        /* \"#utility.yul\":7231:7245   */\n      lt\n        /* \"#utility.yul\":7224:7344   */\n      iszero\n      tag_149\n      jumpi\n        /* \"#utility.yul\":7295:7334   */\n      tag_150\n        /* \"#utility.yul\":7332:7333   */\n      0x00\n        /* \"#utility.yul\":7325:7330   */\n      dup3\n        /* \"#utility.yul\":7295:7334   */\n      tag_58\n      jump\t// in\n    tag_150:\n        /* \"#utility.yul\":7268:7269   */\n      0x01\n        /* \"#utility.yul\":7261:7266   */\n      dup2\n        /* \"#utility.yul\":7257:7270   */\n      add\n        /* \"#utility.yul\":7248:7270   */\n      swap1\n      pop\n        /* \"#utility.yul\":7224:7344   */\n      jump(tag_147)\n    tag_149:\n        /* \"#utility.yul\":7164:7350   */\n      pop\n      pop\n      jump\t// out\n        /* \"#utility.yul\":7356:7899   */\n    tag_60:\n        /* \"#utility.yul\":7457:7459   */\n      0x1f\n        /* \"#utility.yul\":7452:7455   */\n      dup3\n        /* \"#utility.yul\":7449:7460   */\n      gt\n        /* \"#utility.yul\":7446:7892   */\n      iszero\n      tag_152\n      jumpi\n        /* \"#utility.yul\":7491:7529   */\n      tag_153\n        /* \"#utility.yul\":7523:7528   */\n      dup2\n        /* \"#utility.yul\":7491:7529   */\n      tag_49\n      jump\t// in\n    tag_153:\n        /* \"#utility.yul\":7575:7604   */\n      tag_154\n        /* \"#utility.yul\":7593:7603   */\n      dup5\n        /* \"#utility.yul\":7575:7604   */\n      tag_50\n      jump\t// in\n    tag_154:\n        /* \"#utility.yul\":7565:7573   */\n      dup2\n        /* \"#utility.yul\":7561:7605   */\n      add\n        /* \"#utility.yul\":7758:7760   */\n      0x20\n        /* \"#utility.yul\":7746:7756   */\n      dup6\n        /* \"#utility.yul\":7743:7761   */\n      lt\n        /* \"#utility.yul\":7740:7789   */\n      iszero\n      tag_155\n      jumpi\n        /* \"#utility.yul\":7779:7787   */\n      dup2\n        /* \"#utility.yul\":7764:7787   */\n      swap1\n      pop\n        /* \"#utility.yul\":7740:7789   */\n    tag_155:\n        /* \"#utility.yul\":7802:7882   */\n      tag_156\n        /* \"#utility.yul\":7858:7880   */\n      tag_157\n        /* \"#utility.yul\":7876:7879   */\n      dup6\n        /* \"#utility.yul\":7858:7880   */\n      tag_50\n      jump\t// in\n    tag_157:\n        /* \"#utility.yul\":7848:7856   */\n      dup4\n        /* \"#utility.yul\":7844:7881   */\n      add\n        /* \"#utility.yul\":7831:7842   */\n      dup3\n        /* \"#utility.yul\":7802:7882   */\n      tag_59\n      jump\t// in\n    tag_156:\n        /* \"#utility.yul\":7461:7892   */\n      pop\n      pop\n        /* \"#utility.yul\":7446:7892   */\n    tag_152:\n        /* \"#utility.yul\":7356:7899   */\n      pop\n      pop\n      pop\n      jump\t// out\n        /* \"#utility.yul\":7905:8022   */\n    tag_61:\n        /* \"#utility.yul\":7959:7967   */\n      0x00\n        /* \"#utility.yul\":8009:8014   */\n      dup3\n        /* \"#utility.yul\":8003:8007   */\n      dup3\n        /* \"#utility.yul\":7999:8015   */\n      shr\n        /* \"#utility.yul\":7978:8015   */\n      swap1\n      pop\n        /* \"#utility.yul\":7905:8022   */\n      swap3\n      swap2\n      pop\n      pop\n      jump\t// out\n        /* \"#utility.yul\":8028:8197   */\n    tag_62:\n        /* \"#utility.yul\":8072:8078   */\n      0x00\n        /* \"#utility.yul\":8105:8156   */\n      tag_160\n        /* \"#utility.yul\":8153:8154   */\n      0x00\n        /* \"#utility.yul\":8149:8155   */\n      not\n        /* \"#utility.yul\":8141:8146   */\n      dup5\n        /* \"#utility.yul\":8138:8139   */\n      0x08\n        /* \"#utility.yul\":8134:8147   */\n      mul\n        /* \"#utility.yul\":8105:8156   */\n      tag_61\n      jump\t// in\n    tag_160:\n        /* \"#utility.yul\":8101:8157   */\n      not\n        /* \"#utility.yul\":8186:8190   */\n      dup1\n        /* \"#utility.yul\":8180:8184   */\n      dup4\n        /* \"#utility.yul\":8176:8191   */\n      and\n        /* \"#utility.yul\":8166:8191   */\n      swap2\n      pop\n        /* \"#utility.yul\":8079:8197   */\n      pop\n        /* \"#utility.yul\":8028:8197   */\n      swap3\n      swap2\n      pop\n      pop\n      jump\t// out\n        /* \"#utility.yul\":8202:8497   */\n    tag_63:\n        /* \"#utility.yul\":8278:8282   */\n      0x00\n        /* \"#utility.yul\":8424:8453   */\n      tag_162\n        /* \"#utility.yul\":8449:8452   */\n      dup4\n        /* \"#utility.yul\":8443:8447   */\n      dup4\n        /* \"#utility.yul\":8424:8453   */\n      tag_62\n      jump\t// in\n    tag_162:\n        /* \"#utility.yul\":8416:8453   */\n      swap2\n      pop\n        /* \"#utility.yul\":8486:8489   */\n      dup3\n        /* \"#utility.yul\":8483:8484   */\n      0x02\n        /* \"#utility.yul\":8479:8490   */\n      mul\n        /* \"#utility.yul\":8473:8477   */\n      dup3\n        /* \"#utility.yul\":8470:8491   */\n      or\n        /* \"#utility.yul\":8462:8491   */\n      swap1\n      pop\n        /* \"#utility.yul\":8202:8497   */\n      swap3\n      swap2\n      pop\n      pop\n      jump\t// out\n        /* \"#utility.yul\":8502:9897   */\n    tag_20:\n        /* \"#utility.yul\":8619:8656   */\n      tag_164\n        /* \"#utility.yul\":8652:8655   */\n      dup3\n        /* \"#utility.yul\":8619:8656   */\n      tag_43\n      jump\t// in\n    tag_164:\n        /* \"#utility.yul\":8721:8739   */\n      0xffffffffffffffff\n        /* \"#utility.yul\":8713:8719   */\n      dup2\n        /* \"#utility.yul\":8710:8740   */\n      gt\n        /* \"#utility.yul\":8707:8763   */\n      iszero\n      tag_165\n      jumpi\n        /* \"#utility.yul\":8743:8761   */\n      tag_166\n      tag_33\n      jump\t// in\n    tag_166:\n        /* \"#utility.yul\":8707:8763   */\n    tag_165:\n        /* \"#utility.yul\":8787:8825   */\n      tag_167\n        /* \"#utility.yul\":8819:8823   */\n      dup3\n        /* \"#utility.yul\":8813:8824   */\n      sload\n        /* \"#utility.yul\":8787:8825   */\n      tag_22\n      jump\t// in\n    tag_167:\n        /* \"#utility.yul\":8872:8939   */\n      tag_168\n        /* \"#utility.yul\":8932:8938   */\n      dup3\n        /* \"#utility.yul\":8924:8930   */\n      dup3\n        /* \"#utility.yul\":8918:8922   */\n      dup6\n        /* \"#utility.yul\":8872:8939   */\n      tag_60\n      jump\t// in\n    tag_168:\n        /* \"#utility.yul\":8966:8967   */\n      0x00\n        /* \"#utility.yul\":8990:8994   */\n      0x20\n        /* \"#utility.yul\":8977:8994   */\n      swap1\n      pop\n        /* \"#utility.yul\":9022:9024   */\n      0x1f\n        /* \"#utility.yul\":9014:9020   */\n      dup4\n        /* \"#utility.yul\":9011:9025   */\n      gt\n        /* \"#utility.yul\":9039:9040   */\n      0x01\n        /* \"#utility.yul\":9034:9652   */\n      dup2\n      eq\n      tag_170\n      jumpi\n        /* \"#utility.yul\":9696:9697   */\n      0x00\n        /* \"#utility.yul\":9713:9719   */\n      dup5\n        /* \"#utility.yul\":9710:9787   */\n      iszero\n      tag_171\n      jumpi\n        /* \"#utility.yul\":9762:9771   */\n      dup3\n        /* \"#utility.yul\":9757:9760   */\n      dup8\n        /* \"#utility.yul\":9753:9772   */\n      add\n        /* \"#utility.yul\":9747:9773   */\n      mload\n        /* \"#utility.yul\":9738:9773   */\n      swap1\n      pop\n        /* \"#utility.yul\":9710:9787   */\n    tag_171:\n        /* \"#utility.yul\":9813:9880   */\n      tag_172\n        /* \"#utility.yul\":9873:9879   */\n      dup6\n        /* \"#utility.yul\":9866:9871   */\n      dup3\n        /* \"#utility.yul\":9813:9880   */\n      tag_63\n      jump\t// in\n    tag_172:\n        /* \"#utility.yul\":9807:9811   */\n      dup7\n        /* \"#utility.yul\":9800:9881   */\n      sstore\n        /* \"#utility.yul\":9669:9891   */\n      pop\n        /* \"#utility.yul\":9004:9891   */\n      jump(tag_169)\n        /* \"#utility.yul\":9034:9652   */\n    tag_170:\n        /* \"#utility.yul\":9086:9090   */\n      0x1f\n        /* \"#utility.yul\":9082:9091   */\n      not\n        /* \"#utility.yul\":9074:9080   */\n      dup5\n        /* \"#utility.yul\":9070:9092   */\n      and\n        /* \"#utility.yul\":9120:9157   */\n      tag_173\n        /* \"#utility.yul\":9152:9156   */\n      dup7\n        /* \"#utility.yul\":9120:9157   */\n      tag_49\n      jump\t// in\n    tag_173:\n        /* \"#utility.yul\":9179:9180   */\n      0x00\n        /* \"#utility.yul\":9193:9401   */\n    tag_174:\n        /* \"#utility.yul\":9207:9214   */\n      dup3\n        /* \"#utility.yul\":9204:9205   */\n      dup2\n        /* \"#utility.yul\":9201:9215   */\n      lt\n        /* \"#utility.yul\":9193:9401   */\n      iszero\n      tag_176\n      jumpi\n        /* \"#utility.yul\":9286:9295   */\n      dup5\n        /* \"#utility.yul\":9281:9284   */\n      dup10\n        /* \"#utility.yul\":9277:9296   */\n      add\n        /* \"#utility.yul\":9271:9297   */\n      mload\n        /* \"#utility.yul\":9263:9269   */\n      dup3\n        /* \"#utility.yul\":9256:9298   */\n      sstore\n        /* \"#utility.yul\":9337:9338   */\n      0x01\n        /* \"#utility.yul\":9329:9335   */\n      dup3\n        /* \"#utility.yul\":9325:9339   */\n      add\n        /* \"#utility.yul\":9315:9339   */\n      swap2\n      pop\n        /* \"#utility.yul\":9384:9386   */\n      0x20\n        /* \"#utility.yul\":9373:9382   */\n      dup6\n        /* \"#utility.yul\":9369:9387   */\n      add\n        /* \"#utility.yul\":9356:9387   */\n      swap5\n      pop\n        /* \"#utility.yul\":9230:9234   */\n      0x20\n        /* \"#utility.yul\":9227:9228   */\n      dup2\n        /* \"#utility.yul\":9223:9235   */\n      add\n        /* \"#utility.yul\":9218:9235   */\n      swap1\n      pop\n        /* \"#utility.yul\":9193:9401   */\n      jump(tag_174)\n    tag_176:\n        /* \"#utility.yul\":9429:9435   */\n      dup7\n        /* \"#utility.yul\":9420:9427   */\n      dup4\n        /* \"#utility.yul\":9417:9436   */\n      lt\n        /* \"#utility.yul\":9414:9593   */\n      iszero\n      tag_177\n      jumpi\n        /* \"#utility.yul\":9487:9496   */\n      dup5\n        /* \"#utility.yul\":9482:9485   */\n      dup10\n        /* \"#utility.yul\":9478:9497   */\n      add\n        /* \"#utility.yul\":9472:9498   */\n      mload\n        /* \"#utility.yul\":9530:9578   */\n      tag_178\n        /* \"#utility.yul\":9572:9576   */\n      0x1f\n        /* \"#utility.yul\":9564:9570   */\n      dup10\n        /* \"#utility.yul\":9560:9577   */\n      and\n        /* \"#utility.yul\":9549:9558   */\n      dup3\n        /* \"#utility.yul\":9530:9578   */\n      tag_62\n      jump\t// in\n    tag_178:\n        /* \"#utility.yul\":9522:9528   */\n      dup4\n        /* \"#utility.yul\":9515:9579   */\n      sstore\n        /* \"#utility.yul\":9437:9593   */\n      pop\n        /* \"#utility.yul\":9414:9593   */\n    tag_177:\n        /* \"#utility.yul\":9639:9640   */\n      0x01\n        /* \"#utility.yul\":9635:9636   */\n      0x02\n        /* \"#utility.yul\":9627:9633   */\n      dup9\n        /* \"#utility.yul\":9623:9637   */\n      mul\n        /* \"#utility.yul\":9619:9641   */\n      add\n        /* \"#utility.yul\":9613:9617   */\n      dup9\n        /* \"#utility.yul\":9606:9642   */\n      sstore\n        /* \"#utility.yul\":9041:9652   */\n      pop\n      pop\n      pop\n        /* \"#utility.yul\":9004:9891   */\n    tag_169:\n      pop\n        /* \"#utility.yul\":8594:9897   */\n      pop\n      pop\n      pop\n        /* \"#utility.yul\":8502:9897   */\n      pop\n      pop\n      jump\t// out\n\n    auxdata: 0xa26469706673582212206bf37af52628f0d54c1e8f57faef1545d0ff584e0b9ffb6af09f5cb9307cc81264736f6c634300081e0033\n}\n",
				"bytecode": {
					"linkReferences": {},
					"object": "6080604052348015600e575f5ffd5b506106ca8061001c5f395ff3fe608060405234801561000f575f5ffd5b506004361061003f575f3560e01c80634ee5c2ee146100435780638bf1799f1461005f578063d4da005a1461007d575b5f5ffd5b61005d600480360381019061005891906102c6565b61009b565b005b6100676100b5565b6040516100749190610380565b60405180910390f35b610085610140565b60405161009291906103af565b60405180910390f35b815f90816100a991906105c5565b50806001819055505050565b5f80546100c1906103f5565b80601f01602080910402602001604051908101604052809291908181526020018280546100ed906103f5565b80156101385780601f1061010f57610100808354040283529160200191610138565b820191905f5260205f20905b81548152906001019060200180831161011b57829003601f168201915b505050505081565b60015481565b5f604051905090565b5f5ffd5b5f5ffd5b5f5ffd5b5f5ffd5b5f601f19601f8301169050919050565b7f4e487b71000000000000000000000000000000000000000000000000000000005f52604160045260245ffd5b6101a58261015f565b810181811067ffffffffffffffff821117156101c4576101c361016f565b5b80604052505050565b5f6101d6610146565b90506101e2828261019c565b919050565b5f67ffffffffffffffff8211156102015761020061016f565b5b61020a8261015f565b9050602081019050919050565b828183375f83830152505050565b5f610237610232846101e7565b6101cd565b9050828152602081018484840111156102535761025261015b565b5b61025e848285610217565b509392505050565b5f82601f83011261027a57610279610157565b5b813561028a848260208601610225565b91505092915050565b5f819050919050565b6102a581610293565b81146102af575f5ffd5b50565b5f813590506102c08161029c565b92915050565b5f5f604083850312156102dc576102db61014f565b5b5f83013567ffffffffffffffff8111156102f9576102f8610153565b5b61030585828601610266565b9250506020610316858286016102b2565b9150509250929050565b5f81519050919050565b5f82825260208201905092915050565b8281835e5f83830152505050565b5f61035282610320565b61035c818561032a565b935061036c81856020860161033a565b6103758161015f565b840191505092915050565b5f6020820190508181035f8301526103988184610348565b905092915050565b6103a981610293565b82525050565b5f6020820190506103c25f8301846103a0565b92915050565b7f4e487b71000000000000000000000000000000000000000000000000000000005f52602260045260245ffd5b5f600282049050600182168061040c57607f821691505b60208210810361041f5761041e6103c8565b5b50919050565b5f819050815f5260205f209050919050565b5f6020601f8301049050919050565b5f82821b905092915050565b5f600883026104817fffffffffffffffffffffffffffffffffffffffffffffffffffffffffffffffff82610446565b61048b8683610446565b95508019841693508086168417925050509392505050565b5f819050919050565b5f6104c66104c16104bc84610293565b6104a3565b610293565b9050919050565b5f819050919050565b6104df836104ac565b6104f36104eb826104cd565b848454610452565b825550505050565b5f5f905090565b61050a6104fb565b6105158184846104d6565b505050565b5b818110156105385761052d5f82610502565b60018101905061051b565b5050565b601f82111561057d5761054e81610425565b61055784610437565b81016020851015610566578190505b61057a61057285610437565b83018261051a565b50505b505050565b5f82821c905092915050565b5f61059d5f1984600802610582565b1980831691505092915050565b5f6105b5838361058e565b9150826002028217905092915050565b6105ce82610320565b67ffffffffffffffff8111156105e7576105e661016f565b5b6105f182546103f5565b6105fc82828561053c565b5f60209050601f83116001811461062d575f841561061b578287015190505b61062585826105aa565b86555061068c565b601f19841661063b86610425565b5f5b828110156106625784890151825560018201915060208501945060208101905061063d565b8683101561067f578489015161067b601f89168261058e565b8355505b6001600288020188555050505b50505050505056fea26469706673582212206bf37af52628f0d54c1e8f57faef1545d0ff584e0b9ffb6af09f5cb9307cc81264736f6c634300081e0033",
					"opcodes": "PUSH1 0x80 PUSH1 0x40 MSTORE CALLVALUE DUP1 ISZERO PUSH1 0xE JUMPI PUSH0 PUSH0 REVERT JUMPDEST POP PUSH2 0x6CA DUP1 PUSH2 0x1C PUSH0 CODECOPY PUSH0 RETURN INVALID PUSH1 0x80 PUSH1 0x40 MSTORE CALLVALUE DUP1 ISZERO PUSH2 0xF JUMPI PUSH0 PUSH0 REVERT JUMPDEST POP PUSH1 0x4 CALLDATASIZE LT PUSH2 0x3F JUMPI PUSH0 CALLDATALOAD PUSH1 0xE0 SHR DUP1 PUSH4 0x4EE5C2EE EQ PUSH2 0x43 JUMPI DUP1 PUSH4 0x8BF1799F EQ PUSH2 0x5F JUMPI DUP1 PUSH4 0xD4DA005A EQ PUSH2 0x7D JUMPI JUMPDEST PUSH0 PUSH0 REVERT JUMPDEST PUSH2 0x5D PUSH1 0x4 DUP1 CALLDATASIZE SUB DUP2 ADD SWAP1 PUSH2 0x58 SWAP2 SWAP1 PUSH2 0x2C6 JUMP JUMPDEST PUSH2 0x9B JUMP JUMPDEST STOP JUMPDEST PUSH2 0x67 PUSH2 0xB5 JUMP JUMPDEST PUSH1 0x40 MLOAD PUSH2 0x74 SWAP2 SWAP1 PUSH2 0x380 JUMP JUMPDEST PUSH1 0x40 MLOAD DUP1 SWAP2 SUB SWAP1 RETURN JUMPDEST PUSH2 0x85 PUSH2 0x140 JUMP JUMPDEST PUSH1 0x40 MLOAD PUSH2 0x92 SWAP2 SWAP1 PUSH2 0x3AF JUMP JUMPDEST PUSH1 0x40 MLOAD DUP1 SWAP2 SUB SWAP1 RETURN JUMPDEST DUP2 PUSH0 SWAP1 DUP2 PUSH2 0xA9 SWAP2 SWAP1 PUSH2 0x5C5 JUMP JUMPDEST POP DUP1 PUSH1 0x1 DUP2 SWAP1 SSTORE POP POP POP JUMP JUMPDEST PUSH0 DUP1 SLOAD PUSH2 0xC1 SWAP1 PUSH2 0x3F5 JUMP JUMPDEST DUP1 PUSH1 0x1F ADD PUSH1 0x20 DUP1 SWAP2 DIV MUL PUSH1 0x20 ADD PUSH1 0x40 MLOAD SWAP1 DUP2 ADD PUSH1 0x40 MSTORE DUP1 SWAP3 SWAP2 SWAP1 DUP2 DUP2 MSTORE PUSH1 0x20 ADD DUP3 DUP1 SLOAD PUSH2 0xED SWAP1 PUSH2 0x3F5 JUMP JUMPDEST DUP1 ISZERO PUSH2 0x138 JUMPI DUP1 PUSH1 0x1F LT PUSH2 0x10F JUMPI PUSH2 0x100 DUP1 DUP4 SLOAD DIV MUL DUP4 MSTORE SWAP2 PUSH1 0x20 ADD SWAP2 PUSH2 0x138 JUMP JUMPDEST DUP3 ADD SWAP2 SWAP1 PUSH0 MSTORE PUSH1 0x20 PUSH0 KECCAK256 SWAP1 JUMPDEST DUP2 SLOAD DUP2 MSTORE SWAP1 PUSH1 0x1 ADD SWAP1 PUSH1 0x20 ADD DUP1 DUP4 GT PUSH2 0x11B JUMPI DUP3 SWAP1 SUB PUSH1 0x1F AND DUP3 ADD SWAP2 JUMPDEST POP POP POP POP POP DUP2 JUMP JUMPDEST PUSH1 0x1 SLOAD DUP2 JUMP JUMPDEST PUSH0 PUSH1 0x40 MLOAD SWAP1 POP SWAP1 JUMP JUMPDEST PUSH0 PUSH0 REVERT JUMPDEST PUSH0 PUSH0 REVERT JUMPDEST PUSH0 PUSH0 REVERT JUMPDEST PUSH0 PUSH0 REVERT JUMPDEST PUSH0 PUSH1 0x1F NOT PUSH1 0x1F DUP4 ADD AND SWAP1 POP SWAP2 SWAP1 POP JUMP JUMPDEST PUSH32 0x4E487B7100000000000000000000000000000000000000000000000000000000 PUSH0 MSTORE PUSH1 0x41 PUSH1 0x4 MSTORE PUSH1 0x24 PUSH0 REVERT JUMPDEST PUSH2 0x1A5 DUP3 PUSH2 0x15F JUMP JUMPDEST DUP2 ADD DUP2 DUP2 LT PUSH8 0xFFFFFFFFFFFFFFFF DUP3 GT OR ISZERO PUSH2 0x1C4 JUMPI PUSH2 0x1C3 PUSH2 0x16F JUMP JUMPDEST JUMPDEST DUP1 PUSH1 0x40 MSTORE POP POP POP JUMP JUMPDEST PUSH0 PUSH2 0x1D6 PUSH2 0x146 JUMP JUMPDEST SWAP1 POP PUSH2 0x1E2 DUP3 DUP3 PUSH2 0x19C JUMP JUMPDEST SWAP2 SWAP1 POP JUMP JUMPDEST PUSH0 PUSH8 0xFFFFFFFFFFFFFFFF DUP3 GT ISZERO PUSH2 0x201 JUMPI PUSH2 0x200 PUSH2 0x16F JUMP JUMPDEST JUMPDEST PUSH2 0x20A DUP3 PUSH2 0x15F JUMP JUMPDEST SWAP1 POP PUSH1 0x20 DUP2 ADD SWAP1 POP SWAP2 SWAP1 POP JUMP JUMPDEST DUP3 DUP2 DUP4 CALLDATACOPY PUSH0 DUP4 DUP4 ADD MSTORE POP POP POP JUMP JUMPDEST PUSH0 PUSH2 0x237 PUSH2 0x232 DUP5 PUSH2 0x1E7 JUMP JUMPDEST PUSH2 0x1CD JUMP JUMPDEST SWAP1 POP DUP3 DUP2 MSTORE PUSH1 0x20 DUP2 ADD DUP5 DUP5 DUP5 ADD GT ISZERO PUSH2 0x253 JUMPI PUSH2 0x252 PUSH2 0x15B JUMP JUMPDEST JUMPDEST PUSH2 0x25E DUP5 DUP3 DUP6 PUSH2 0x217 JUMP JUMPDEST POP SWAP4 SWAP3 POP POP POP JUMP JUMPDEST PUSH0 DUP3 PUSH1 0x1F DUP4 ADD SLT PUSH2 0x27A JUMPI PUSH2 0x279 PUSH2 0x157 JUMP JUMPDEST JUMPDEST DUP2 CALLDATALOAD PUSH2 0x28A DUP5 DUP3 PUSH1 0x20 DUP7 ADD PUSH2 0x225 JUMP JUMPDEST SWAP2 POP POP SWAP3 SWAP2 POP POP JUMP JUMPDEST PUSH0 DUP2 SWAP1 POP SWAP2 SWAP1 POP JUMP JUMPDEST PUSH2 0x2A5 DUP2 PUSH2 0x293 JUMP JUMPDEST DUP2 EQ PUSH2 0x2AF JUMPI PUSH0 PUSH0 REVERT JUMPDEST POP JUMP JUMPDEST PUSH0 DUP2 CALLDATALOAD SWAP1 POP PUSH2 0x2C0 DUP2 PUSH2 0x29C JUMP JUMPDEST SWAP3 SWAP2 POP POP JUMP JUMPDEST PUSH0 PUSH0 PUSH1 0x40 DUP4 DUP6 SUB SLT ISZERO PUSH2 0x2DC JUMPI PUSH2 0x2DB PUSH2 0x14F JUMP JUMPDEST JUMPDEST PUSH0 DUP4 ADD CALLDATALOAD PUSH8 0xFFFFFFFFFFFFFFFF DUP2 GT ISZERO PUSH2 0x2F9 JUMPI PUSH2 0x2F8 PUSH2 0x153 JUMP JUMPDEST JUMPDEST PUSH2 0x305 DUP6 DUP3 DUP7 ADD PUSH2 0x266 JUMP JUMPDEST SWAP3 POP POP PUSH1 0x20 PUSH2 0x316 DUP6 DUP3 DUP7 ADD PUSH2 0x2B2 JUMP JUMPDEST SWAP2 POP POP SWAP3 POP SWAP3 SWAP1 POP JUMP JUMPDEST PUSH0 DUP2 MLOAD SWAP1 POP SWAP2 SWAP1 POP JUMP JUMPDEST PUSH0 DUP3 DUP3 MSTORE PUSH1 0x20 DUP3 ADD SWAP1 POP SWAP3 SWAP2 POP POP JUMP JUMPDEST DUP3 DUP2 DUP4 MCOPY PUSH0 DUP4 DUP4 ADD MSTORE POP POP POP JUMP JUMPDEST PUSH0 PUSH2 0x352 DUP3 PUSH2 0x320 JUMP JUMPDEST PUSH2 0x35C DUP2 DUP6 PUSH2 0x32A JUMP JUMPDEST SWAP4 POP PUSH2 0x36C DUP2 DUP6 PUSH1 0x20 DUP7 ADD PUSH2 0x33A JUMP JUMPDEST PUSH2 0x375 DUP2 PUSH2 0x15F JUMP JUMPDEST DUP5 ADD SWAP2 POP POP SWAP3 SWAP2 POP POP JUMP JUMPDEST PUSH0 PUSH1 0x20 DUP3 ADD SWAP1 POP DUP2 DUP2 SUB PUSH0 DUP4 ADD MSTORE PUSH2 0x398 DUP2 DUP5 PUSH2 0x348 JUMP JUMPDEST SWAP1 POP SWAP3 SWAP2 POP POP JUMP JUMPDEST PUSH2 0x3A9 DUP2 PUSH2 0x293 JUMP JUMPDEST DUP3 MSTORE POP POP JUMP JUMPDEST PUSH0 PUSH1 0x20 DUP3 ADD SWAP1 POP PUSH2 0x3C2 PUSH0 DUP4 ADD DUP5 PUSH2 0x3A0 JUMP JUMPDEST SWAP3 SWAP2 POP POP JUMP JUMPDEST PUSH32 0x4E487B7100000000000000000000000000000000000000000000000000000000 PUSH0 MSTORE PUSH1 0x22 PUSH1 0x4 MSTORE PUSH1 0x24 PUSH0 REVERT JUMPDEST PUSH0 PUSH1 0x2 DUP3 DIV SWAP1 POP PUSH1 0x1 DUP3 AND DUP1 PUSH2 0x40C JUMPI PUSH1 0x7F DUP3 AND SWAP2 POP JUMPDEST PUSH1 0x20 DUP3 LT DUP2 SUB PUSH2 0x41F JUMPI PUSH2 0x41E PUSH2 0x3C8 JUMP JUMPDEST JUMPDEST POP SWAP2 SWAP1 POP JUMP JUMPDEST PUSH0 DUP2 SWAP1 POP DUP2 PUSH0 MSTORE PUSH1 0x20 PUSH0 KECCAK256 SWAP1 POP SWAP2 SWAP1 POP JUMP JUMPDEST PUSH0 PUSH1 0x20 PUSH1 0x1F DUP4 ADD DIV SWAP1 POP SWAP2 SWAP1 POP JUMP JUMPDEST PUSH0 DUP3 DUP3 SHL SWAP1 POP SWAP3 SWAP2 POP POP JUMP JUMPDEST PUSH0 PUSH1 0x8 DUP4 MUL PUSH2 0x481 PUSH32 0xFFFFFFFFFFFFFFFFFFFFFFFFFFFFFFFFFFFFFFFFFFFFFFFFFFFFFFFFFFFFFFFF DUP3 PUSH2 0x446 JUMP JUMPDEST PUSH2 0x48B DUP7 DUP4 PUSH2 0x446 JUMP JUMPDEST SWAP6 POP DUP1 NOT DUP5 AND SWAP4 POP DUP1 DUP7 AND DUP5 OR SWAP3 POP POP POP SWAP4 SWAP3 POP POP POP JUMP JUMPDEST PUSH0 DUP2 SWAP1 POP SWAP2 SWAP1 POP JUMP JUMPDEST PUSH0 PUSH2 0x4C6 PUSH2 0x4C1 PUSH2 0x4BC DUP5 PUSH2 0x293 JUMP JUMPDEST PUSH2 0x4A3 JUMP JUMPDEST PUSH2 0x293 JUMP JUMPDEST SWAP1 POP SWAP2 SWAP1 POP JUMP JUMPDEST PUSH0 DUP2 SWAP1 POP SWAP2 SWAP1 POP JUMP JUMPDEST PUSH2 0x4DF DUP4 PUSH2 0x4AC JUMP JUMPDEST PUSH2 0x4F3 PUSH2 0x4EB DUP3 PUSH2 0x4CD JUMP JUMPDEST DUP5 DUP5 SLOAD PUSH2 0x452 JUMP JUMPDEST DUP3 SSTORE POP POP POP POP JUMP JUMPDEST PUSH0 PUSH0 SWAP1 POP SWAP1 JUMP JUMPDEST PUSH2 0x50A PUSH2 0x4FB JUMP JUMPDEST PUSH2 0x515 DUP2 DUP5 DUP5 PUSH2 0x4D6 JUMP JUMPDEST POP POP POP JUMP JUMPDEST JUMPDEST DUP2 DUP2 LT ISZERO PUSH2 0x538 JUMPI PUSH2 0x52D PUSH0 DUP3 PUSH2 0x502 JUMP JUMPDEST PUSH1 0x1 DUP2 ADD SWAP1 POP PUSH2 0x51B JUMP JUMPDEST POP POP JUMP JUMPDEST PUSH1 0x1F DUP3 GT ISZERO PUSH2 0x57D JUMPI PUSH2 0x54E DUP2 PUSH2 0x425 JUMP JUMPDEST PUSH2 0x557 DUP5 PUSH2 0x437 JUMP JUMPDEST DUP2 ADD PUSH1 0x20 DUP6 LT ISZERO PUSH2 0x566 JUMPI DUP2 SWAP1 POP JUMPDEST PUSH2 0x57A PUSH2 0x572 DUP6 PUSH2 0x437 JUMP JUMPDEST DUP4 ADD DUP3 PUSH2 0x51A JUMP JUMPDEST POP POP JUMPDEST POP POP POP JUMP JUMPDEST PUSH0 DUP3 DUP3 SHR SWAP1 POP SWAP3 SWAP2 POP POP JUMP JUMPDEST PUSH0 PUSH2 0x59D PUSH0 NOT DUP5 PUSH1 0x8 MUL PUSH2 0x582 JUMP JUMPDEST NOT DUP1 DUP4 AND SWAP2 POP POP SWAP3 SWAP2 POP POP JUMP JUMPDEST PUSH0 PUSH2 0x5B5 DUP4 DUP4 PUSH2 0x58E JUMP JUMPDEST SWAP2 POP DUP3 PUSH1 0x2 MUL DUP3 OR SWAP1 POP SWAP3 SWAP2 POP POP JUMP JUMPDEST PUSH2 0x5CE DUP3 PUSH2 0x320 JUMP JUMPDEST PUSH8 0xFFFFFFFFFFFFFFFF DUP2 GT ISZERO PUSH2 0x5E7 JUMPI PUSH2 0x5E6 PUSH2 0x16F JUMP JUMPDEST JUMPDEST PUSH2 0x5F1 DUP3 SLOAD PUSH2 0x3F5 JUMP JUMPDEST PUSH2 0x5FC DUP3 DUP3 DUP6 PUSH2 0x53C JUMP JUMPDEST PUSH0 PUSH1 0x20 SWAP1 POP PUSH1 0x1F DUP4 GT PUSH1 0x1 DUP2 EQ PUSH2 0x62D JUMPI PUSH0 DUP5 ISZERO PUSH2 0x61B JUMPI DUP3 DUP8 ADD MLOAD SWAP1 POP JUMPDEST PUSH2 0x625 DUP6 DUP3 PUSH2 0x5AA JUMP JUMPDEST DUP7 SSTORE POP PUSH2 0x68C JUMP JUMPDEST PUSH1 0x1F NOT DUP5 AND PUSH2 0x63B DUP7 PUSH2 0x425 JUMP JUMPDEST PUSH0 JUMPDEST DUP3 DUP2 LT ISZERO PUSH2 0x662 JUMPI DUP5 DUP10 ADD MLOAD DUP3 SSTORE PUSH1 0x1 DUP3 ADD SWAP2 POP PUSH1 0x20 DUP6 ADD SWAP5 POP PUSH1 0x20 DUP2 ADD SWAP1 POP PUSH2 0x63D JUMP JUMPDEST DUP7 DUP4 LT ISZERO PUSH2 0x67F JUMPI DUP5 DUP10 ADD MLOAD PUSH2 0x67B PUSH1 0x1F DUP10 AND DUP3 PUSH2 0x58E JUMP JUMPDEST DUP4 SSTORE POP JUMPDEST PUSH1 0x1 PUSH1 0x2 DUP9 MUL ADD DUP9 SSTORE POP POP POP JUMPDEST POP POP POP POP POP POP JUMP INVALID LOG2 PUSH5 0x6970667358 0x22 SLT KECCAK256 PUSH12 0xF37AF52628F0D54C1E8F57FA 0xEF ISZERO GASLIMIT 0xD0 SELFDESTRUCT PC 0x4E SIGNEXTEND SWAP16 EXTSTATICCALL PUSH11 0xF09F5CB9307CC81264736F PUSH13 0x634300081E0033000000000000 "
				},
				"gasEstimates": {
					"creation": {
						"codeDepositCost": "347600",
						"executionCost": "384",
						"totalCost": "347984"
					},
					"external": {
						"myNum()": "2447",
						"myState()": "infinite",
						"update(string,uint256)": "infinite"
					}
				},
				"methodIdentifiers": {
					"myNum()": "d4da005a",
					"myState()": "8bf1799f",
					"update(string,uint256)": "4ee5c2ee"
				}
			},
			"storageLayout": {
				"storage": [
					{
						"astId": 3,
						"contract": "contracts/stateVariables.sol:StateVariables",
						"label": "myState",
						"offset": 0,
						"slot": "0",
						"type": "t_string_storage"
					},
					{
						"astId": 5,
						"contract": "contracts/stateVariables.sol:StateVariables",
						"label": "myNum",
						"offset": 0,
						"slot": "1",
						"type": "t_uint256"
					}
				],
				"types": {
					"t_string_storage": {
						"encoding": "bytes",
						"label": "string",
						"numberOfBytes": "32"
					},
					"t_uint256": {
						"encoding": "inplace",
						"label": "uint256",
						"numberOfBytes": "32"
					}
				}
			},
			"userdoc": {
				"kind": "user",
				"methods": {},
				"version": 1
			}
		}
	}
}